:020000022000DC
:102000000000042059220200B1220200B322020083
:10201000B5220200B7220200B9220200000000002F
:10202000000000000000000000000000BB220200D1
:10203000BD22020000000000BF220200C1220200F7
:1020400059670200C722020081880200CB220200E9
:10205000CD220200CF22020031720200D322020000
:10206000D5220200D7220200D9220200DB22020080
:10207000DD220200DF220200E1220200E322020050
:10208000E522020031440200E9220200EB220200B4
:1020900071440200EF22020041D60200F322020046
:1020A000F5220200F7220200F9220200FB220200C0
:1020B000FD220200FF220200C3220200C32202000E
:1020C000012302000323020005230200072302006C
:1020D000092302000B2302000D2302000F2302003C
:1020E000112302001323020015230200172302000C
:0820F000C322020019230200C3
:1020F800364937480A1A02D0072291438D46354996
:1021080035480A1A06D00722914381F3098802222A
:1021180082F3148831483249324A00F045F832488F
:102128003249334A00F040F832483349334A00F024
:102138003BF833483349344A00F036F833483449D9
:10214800344A00F031F834483449354A00F02CF864
:1021580034483549354A00F027F8354835490022D2
:1021680000F02DF834483549002200F028F83448AA
:102178003449091A082903DB00220260043001608F
:10218800314A90471F482049884205D002680430E8
:1021980003B4904703BCF7E700208646EC460020CE
:1021A80000212A4A9047FEE7884207D0521A05D0F4
:1021B800037801300B700131013AF9D17047884238
:1021C80002D002700130FAE77047000000000420D6
:1021D80000F803200000042000000420140003007D
:1021E800902A0020002B00201C2302001C23020040
:1021F80040E6020014000300902A0020902A0020E4
:1022080080E7020080E7020080E7020080E7020022
:1022180080E7020080E7020080E7020080E7020012
:102228001400030084000300002B0020002B002072
:10223800002B00203C3C00203C3C0020403C00207F
:10224800403C0020403E00207D22020051A20200B6
:102258000F484FF00701884385460E4880470E48CF
:10226800016841F470010160BFF34F8FBFF36F8FB6
:10227800FFF73EBF09480A490A4A884207D0521A5E
:1022880005D0037801300B700131013AF9D170475C
:102298000000042035C9020088ED00E008E70200CC
:1022A800182A0020902A0020FEE7FEE7FEE7FEE756
:1022B800FEE7FEE7FEE7FEE7FEE7FEE7FEE7FEE7EE
:1022C800FEE7FEE7FEE7FEE7FEE7FEE7FEE7FEE7DE
:1022D800FEE7FEE7FEE7FEE7FEE7FEE7FEE7FEE7CE
:1022E800FEE7FEE7FEE7FEE7FEE7FEE7FEE7FEE7BE
:1022F800FEE7FEE7FEE7FEE7FEE7FEE7FEE7FEE7AE
:10230800FEE7FEE7FEE7FEE7FEE7FEE7FEE7FEE79D
:04231800FEE700BF1D
:10231C0000487047343C00207047704708B508F0FF
:10232C0031FA00BF08BD00B589B00390029101924B
:10233C00019B002B22D0002307930A230693029AB9
:10234C00079B1344019A1946002008F0CDF905901B
:10235C00079A059B13440793019A059BD31A019383
:10236C00059B002B05D1069B013B0693069B002B7E
:10237C0003D0019B002BE2D100E000BF00BF09B0ED
:10238C005DF804FB00B585B003900291054B0093FA
:10239C004023054A0299039800F012F800BF05B0DB
:1023AC005DF804FB33230200002B002082B0019067
:1023BC0000BF02B0704782B0019000BF02B07047FE
:1023CC0000B5A1B00590049103920293049803F018
:1023DC00C8FB039B1593029B1693002317930023B2
:1023EC008DF8603000231993229B1A9300231F93BE
:1023FC000FA91F9B0822049803F06EFC08231F935F
:10240C00119B1293109B9BB2ADF84C3000238DF8AE
:10241C0050309DF83C3003F00303DBB2012B32D17A
:10242C000F9BC3F395231D939DF83C30C3F3C2035C
:10243C00DBB28DF84E309DF83C30C3F38003DBB239
:10244C00002B14BF01230023DBB28DF84F30BDF8F5
:10245C003C30C3F38313DBB21C931C9B9A0009A979
:10246C001F9B049803F038FC1C9B9B001F9A134481
:10247C001F9312AA09A915AB009313461C9A1D9819
:10248C0000F08EFE3BE09DF83C3003F00303DBB222
:10249C00022B34D1BDF83E30C3F389139BB21E938B
:1024AC009DF83C30C3F3C203DBB28DF84E309DF87F
:1024BC003C30C3F38003DBB2002B14BF0123002399
:1024CC00DBB28DF84F301E9B082B28BF08231B93C3
:1024DC0007A91F9B1B9A049803F0FEFB1F9A1B9BDA
:1024EC0013441F931E9A1B9BD31A1E9315AB12AA4F
:1024FC0007A81B9900F0F6FE1E9B002BE3D1049855
:10250C0003F03EFB00BF21B05DF804FB82B00190EC
:10251C00019B01225A7200BF02B0704700B583B014
:10252C004FF0FF330193FFF7F9FE0421084800F048
:10253C0071FD0190019B002B03DA0649412006F046
:10254C009DFF0348FFF7E2FF00BF03B05DF804FBFB
:10255C00902A00208CE7020000B583B00190009116
:10256C00019B1B681B6800990198984700BF03B03A
:10257C005DF804FB00B583B00190019B1B685B68A0
:10258C000198984700BF03B05DF804FB82B001903E
:10259C000B468DF80330019B9DF803201A7200BF87
:1025AC0002B0704782B00190019B1B7A184602B0B2
:1025BC00704782B00190019B01225A7200BF02B099
:1025CC00704782B00190019B5B7A184602B070474D
:1025DC0010B487B001900091019B009A53E8004F12
:1025EC0044EA020043E8000191F0000FF6D1059493
:1025FC0004900391049B184607B05DF8044B704798
:10260C0010B487B001900091019B009A53E8004FE1
:10261C0004EA020043E8000191F0000FF6D10594A2
:10262C0004900391059B184607B05DF8044B704766
:10263C0000B583B0019001210198FFF7C9FF034653
:10264C00184603B05DF804FB00B583B0019000217F
:10265C000198FFF7D5FF0346184603B05DF804FB5D
:10266C0000B587B001901F4BFF229A601D4B0022D2
:10267C001A601C4B00225A601A4B0022C3F8182413
:10268C00184B0022C3F81424164B002283F81C2488
:10269C00154803F0CBF90490049B002B01D0049B4C
:1026AC001CE0124A124BD31ADB0803930023059348
:1026BC000FE0059A13465B0013449B001A460D4B22
:1026CC0013440293059B9AB2029B1A80059B01331B
:1026DC000593059A039B9A42EBD30023184607B047
:1026EC005DF804FB102C002004E80200E0E6020078
:1026FC0090E60200182A0020024A034BD31ADB088A
:10270C0018467047E0E6020090E6020000B587B07C
:10271C0001900B468DF803309DF80330002B23D02D
:10272C00FFF7EAFF04900023059317E0059A134680
:10273C005B0013449B001A460E4B13440393039BFC
:10274C005B881A46019B1B689A4204D1019B059A2F
:10275C001A60002309E0059B01330593059A049B3D
:10276C009A42E3D3052300E00023184607B05DF836
:10277C0004FB00BF182A002000B585B001900B4661
:10278C008DF803309DF8032001AB11461846FFF776
:10279C00BDFF0346002B07D1019BDB00054A134408
:1027AC000393039B1B6800E00023184605B05DF8FB
:1027BC0004FB00BF90E6020084B001900B468DF83C
:1027CC000330019BDB00174A134402939DF803303E
:1027DC00013B032B1CD801A252F823F0F92702006D
:1027EC0001280200092802001328020000238DF89A
:1027FC000F3011E000238DF80F300DE0029B1B7998
:10280C008DF80F3008E0029B5B798DF80F3003E0F8
:10281C0000238DF80F3000BF9DF80F30184604B020
:10282C00704700BF90E6020000B589B04148FFF741
:10283C00FFFE4148FFF7FCFE404B5B6807933F4BA4
:10284C009B680493079A049B134002339B003B4AFA
:10285C001344043306931BE0079B01330793069B39
:10286C005B88C3F389139BB21A46069B1B88C3F380
:10287C0089139BB213441A46079B13440793079A78
:10288C00049B134002339B002C4A134404330693DD
:10289C00069B1B7803F00303DBB2002BDCD0002378
:1028AC00059311E0059B9B006A461A44079B591C33
:1028BC00079104990B40214902339B000B445B6840
:1028CC001360059B01330593059B012BEAD99DF8F9
:1028DC000030C3F30103DBB2012B0CD0022B14D15B
:1028EC00BDF80230C3F389139BB203339B08079ADC
:1028FC00134407930FE0BDF80030C3F38313DBB22E
:10290C001A46079B1344079305E00D4940F24D10FE
:10291C0006F0B4FD00BF0848FFF796FE0390039B3A
:10292C00002B02D0054A079B536000BF09B05DF82D
:10293C0004FB00BF2830002024300020102C002085
:10294C0028E8020010B586B0039002910192009322
:10295C00009B5A1C0092089A134002339B00294A90
:10296C00134404330593059A1378012161F3010391
:10297C001370039B03F01003002B14BF01230023DF
:10298C00D9B2059A137861F382031370039BDBB2FF
:10299C0003F00703D9B2059A137861F3C5031370DA
:1029AC00019BDBB203F00F03D9B2059A138861F3D4
:1029BC0089131380029BC3F31501059A136861F305
:1029CC009F231360039B1B0CADF81230BDF8124013
:1029DC00FFF792FE03469C4204D30B4940F2691068
:1029EC0006F04CFD009B5A1C0092089A1340BDF84F
:1029FC001220044902339B000B445A60009B18467A
:102A0C0006B010BD102C002028E8020000B589B0DB
:102A1C0001900091019B023306930223059301233D
:102A2C008DF8133000238DF80B300DF10B03184685
:102A3C0001F0CEFF194B1A68009B1A60174B9A686D
:102A4C00164B5968154B1B68CB1A1344013307936B
:102A5C00069A059B134403930BE0FFF7E5FE0F4B1F
:102A6C009A680E4B59680D4B1B68CB1A13440133F3
:102A7C000793039A079B9A42EFD8084B1A68069B58
:102A8C001344064A13609DF80B30184601F0B6FF4C
:102A9C009DF81330184609B05DF804FB102C00208B
:102AAC0000B58BB005900491039202931E4B9B686A
:102ABC00089307AB19460298FFF7A8FF0346002BB3
:102ACC0023D0079A089B00931346029A0499059801
:102ADC00FFF738FF034607930023099311E0079B88
:102AEC005A1C0792089A1340099A920003990A44B7
:102AFC0012680D4902339B000B445A60099B013349
:102B0C000993099A029B9A42E9D3074B93F81C3418
:102B1C00002B05D000BF00F093F80346002BFAD130
:102B2C0000BF0BB05DF804FB102C002000B583B087
:102B3C00019000910023002200990198FFF7B0FF4B
:102B4C0000BF03B05DF804FB00B587B003900291A1
:102B5C000192019B059305AA012302990398FFF7A3
:102B6C009FFF00BF07B05DF804FB00B587B0039072
:102B7C00029101920093019B0493009B059304AA7C
:102B8C00022302990398FFF78BFF00BF07B05DF893
:102B9C0004FB00B589B00390029101920093019B54
:102BAC000593009B06930A9B079305AA032302999E
:102BBC000398FFF775FF00BF09B05DF804FB00B583
:102BCC0089B00390029101920093019B0493009BA6
:102BDC0005930A9B06930B9B079304AA0423029963
:102BEC000398FFF75DFF00BF09B05DF804FB00B56B
:102BFC008BB00390029101920093019B0593009B73
:102C0C0006930C9B07930D9B08930E9B099305AAA7
:102C1C00052302990398FFF743FF00BF0BB05DF843
:102C2C0004FB0000054B5A68044B1B689A420CBF0E
:102C3C0001230023DBB21846704700BF102C002084
:102C4C0000B599B0FFF7EEFF0346002B01D000232F
:102C5C00A6E19D4B0022C3F81824BFF34F8F9A4B6B
:102C6C005B681793984B9B681093179A109B1340B3
:102C7C0002339B00944A1344043316930023159398
:102C8C000023149300230F931BE0179B013317931E
:102C9C00169B5B88C3F389139BB21A46169B1B8841
:102CAC00C3F389139BB213441A46179B134417930F
:102CBC00179A109B134002339B00834A134404332E
:102CCC001693169B1B7803F00303DBB2002BDCD0AE
:102CDC000023139311E0139B9B0002AA1A44179B29
:102CEC00591C179110990B40774902339B000B44E8
:102CFC005B681360139B01331393139B012BEAD96D
:102D0C009DF8083003F00303DBB2022B40F09C80EB
:102D1C00BDF80A30C3F389139BB20E93BDF80A3089
:102D2C00C3F389139BB2502BA8BF50230D930D9B5B
:102D3C009BB2C3F309039AB2BDF80A3062F38F1346
:102D4C00ADF80A300D9B08330C939DF80830C3F393
:102D5C00C203DBB20F930C995C4802F072FE159023
:102D6C00159B002B00F0D480159802F0FAFE02A9F6
:102D7C00149B0822159802F09DFF149B08331493A2
:102D8C00179BDA43109B134001339B000B930D9A56
:102D9C000B9B9A4242D90B9B002B08D0179A109B85
:102DAC00134002339B00484A1344043300E0484B61
:102DBC000A930B9B002B02D00B9BDBB201E00D9B0B
:102DCC00DBB28DF827300B9B002B01D0404B00E081
:102DDC00002308930B9B002B06D00D9BDAB20B9BA8
:102DEC00DBB2D31ADBB200E000238DF81F309DF864
:102DFC002720149B0A99159802F05CFF9DF8273048
:102E0C00149A13441493089B002B16D09DF81F2082
:102E1C00149B0899159802F04DFF0EE0179A109B21
:102E2C00134002339B00284A134404330693149B2B
:102E3C000D9A0699159802F03DFF0E9B03339B08E3
:102E4C00179A1344179363E09DF8083003F00303BB
:102E5C00DBB2012B5CD1BDF80830C3F38313DBB2BA
:102E6C00062B28BF0623DBB203F00F03DAB2BDF842
:102E7C00083062F38913ADF80830BDF80830C3F39D
:102E8C008313DBB2023305939DF80830C3F3C203FE
:102E9C00DBB20F93059B9B0019460C4802F0D1FD49
:102EAC001590159B002B33D0159802F05AFE02A9F1
:102EBC00149B0822159802F0FDFE149B0833149302
:102ECC00002313931BE000BF102C002004E8020029
:102EDC001C2C0020179B5A1C1792109A134002337B
:102EEC009B00314A1344191D149B0422159802F0BF
:102EFC00E1FE149B04331493139B01331393BDF81D
:102F0C000830C3F38313DBB21A46139B9A42E1D801
:102F1C00159B002B3ED0244BD3F810341293224B2C
:102F2C00D3F81834002B1AD0159802F029FE31E092
:102F3C0000238DF847301298FFF743FB0346002B14
:102F4C0002D001238DF847309DF84730002B03D079
:102F5C0015991298FFF700FB129B5B681293129B5A
:102F6C00002BE5D1159802F00BFE00238DF80730ED
:102F7C000DF10703184601F02BFD0B4BD3F8183459
:102F8C00002B02D1084A179B53609DF80730184656
:102F9C0001F034FDFFF746FE034683F00103DBB27C
:102FAC00184619B05DF804FB102C002000B585B054
:102FBC000023039322E0164BD3F810340293012321
:102FCC008DF807300EE00298FFF7ECFA03461A462C
:102FDC00039B9A4203D100238DF8073005E0029B36
:102FEC005B680293029B002BEDD19DF80730002B00
:102FFC0001D0039B07E0039B01330393039B092B35
:10300C00D9DD4FF0FF33184605B05DF804FB00BF67
:10301C00102C002000B585B001900B468DF80330C4
:10302C00FFF7C4FF0390039BB3F1FF3F01D1039B58
:10303C001EE0039BDBB219460198FFF7A7FA0E4B73
:10304C00D3F81034002B07D10B4A019BC2F8103473
:10305C00019B00225A600AE0074BD3F810345A68DF
:10306C00019B5A60044BD3F81034019A5A60039BAD
:10307C00184605B05DF804FB102C002000B583B099
:10308C000C4BD3F8103401930A4B012283F81C2407
:10309C0008E00198FFF78DFA0198FFF76BFA019B96
:1030AC005B680193019B002BF3D100BF03B05DF86B
:1030BC0004FB00BF102C002010B582B001900091D1
:1030CC00019BDB7983F00103DBB2002B28D0019B41
:1030DC001B7A002B12D0019B9B881A46019B9B7973
:1030EC0019461046FFF768FB03461A460E4B53F879
:1030FC0022301A460D49009801F04AFE019B9B793B
:10310C001A460B4B53F82240019B9B880021184612
:10311C00FFF732FB034622460649009801F038FEC1
:10312C0000BF02B010BD00BFB02A002000E90200B1
:10313C009C2A002004E9020000B585B0039002919E
:10314C0013468DF80730039BDB7983F00103DBB268
:10315C00002B0FD0039B1B7A002B06D00D4B1B684A
:10316C001A460D49029801F013FE0C49029801F021
:10317C000FFE07E09DF80730002B03D0074902989B
:10318C0001F006FE029801F0E1FD00BF05B05DF80C
:10319C0004FB00BFB02A002000E9020010E9020085
:1031AC0030B58BB007900691059204930E9B1B7B58
:1031BC008DF827300E9B00221A730E990498FFF796
:1031CC007BFF059B062B7FD801A252F823F000BF92
:1031DC00F9310200033202001332020027320200DE
:1031EC00453202006D3202009D32020007990E98A2
:1031FC0001F0CEFD69E0069B1B681A4607990E98F4
:10320C0001F0C6FD61E0069B1A68069B04331B683F
:10321C0007990E9801F0BCFD57E0069B1A68069BB7
:10322C0004331968069B08331B6800930B460799F7
:10323C000E9801F0ADFD48E0069B1968069B04331F
:10324C001868069B08331B68069A0C3212680192A8
:10325C00009303460A4607990E9801F099FD34E055
:10326C00069B1868069B04331C68069B08331B6876
:10327C00069A0C3212680699103109680291019273
:10328C0000932346024607990E9801F081FD1CE03D
:10329C00069B1C68069B04331D68069B08331B6841
:1032AC00069A0C3212680699103109680698143087
:1032BC00006803900291019200932B4622460799D5
:1032CC000E9801F065FD00E000BF00220E990498F5
:1032DC00FFF732FF0E9B9DF827201A7300BF0BB02F
:1032EC0030BD00BF00B587B00390029101920093EE
:1032FC00029B082B5CD8009B1B7B8DF81330009B2A
:10330C0000221A7300990198FFF7D6FE002305934B
:10331C0014E0059A029B9A4209D2039A059B134426
:10332C001B781A462449009801F032FD03E023492A
:10333C00009801F02DFD059B01330593059B072B90
:10334C00E7D91F49009801F023FD0023059322E0E3
:10335C00059A029B9A4217D2039A059B13441B7839
:10336C008DF812309DF8123018460AF081FC034695
:10337C00002B02D09DF8123000E02E231A46114982
:10338C00009801F005FD03E00F49009801F000FDE5
:10339C00059B01330593059B072BD9D90122009975
:1033AC000198FFF7C9FE009B9DF813201A7300E0EB
:1033BC0000BF07B05DF804FB14E902001CE9020031
:1033CC0020E9020024E9020028E9020000B589B0D6
:1033DC00019000238DF81F3051E02E4B1A689DF898
:1033EC001F30DB0013440693069B1B781A460123FF
:1033FC0093400593284B1A68059B1340002B39D03A
:10340C00059BDA43244B1B681340234A1360069B2D
:10341C001B78184603F0ECFE03468DF81330069B20
:10342C001B781A46012393401A461C4B1B68134009
:10343C009DF81320069909788A4093421AD19DF879
:10344C001330069A5278012A0CBF01220022D2B204
:10345C0093420CBF01230023DBB20393069B5B68F2
:10346C00002B07D0069B5B68069A12780399C9B2A9
:10347C00104698479DF81F3001338DF81F30084BCC
:10348C001B789DF81F209A42A7D300BF09B05DF8A6
:10349C0004FB00BF30300020603000205C30002086
:1034AC003430002000B585B001900B468DF8033008
:1034BC000122019B02FA03F303931E4B184601F001
:1034CC006DF80290029B002B30D11B4B1A68039BAA
:1034DC001340002B22D1019803F08AFE0346002BE7
:1034EC0006D0164B1A68039B1343144A136006E06C
:1034FC00039BDA43114B1B681340104A13600E4BAD
:10350C001A68039B13430C4A13600A480C4B1B6844
:10351C000022194601F010F8029008E0039BDA43F0
:10352C00054B1B681340044A136000E000BF05B054
:10353C005DF804FB3C300020603000205C30002043
:10354C003830002000B589B003900B4601928DF8FD
:10355C000B30019B042B01D8072351E003F050FDE5
:10356C00034683F00103DBB2002B07D003F000FD10
:10357C000790079B002B01D0079B41E0224A039B3D
:10358C001360224A9DF80B301370214A019B136083
:10359C00204B00221A60204B00221A6023E09DF879
:1035AC000B30DB00039A1344069303238DF814307D
:1035BC0000238DF8153000238DF8163000238DF87C
:1035CC001730069B9B788DF81530069B1B78184698
:1035DC0005AB124A194603F01FFD0790079B002B01
:1035EC0001D0079B0CE09DF80B305A1E8DF80B2078
:1035FC00002BD4D10A4A00210A4800F06DFF034683
:10360C00184609B05DF804FB30300020343000203F
:10361C00383000205C30002060300020B1340200D3
:10362C00D93302002CE9020000B583B0114B1B68A2
:10363C00002B03D11049B62005F020FF0023019385
:10364C000CE00C4B1A68019BDB0013441B78012126
:10365C00184603F045FD019B01330193074B1B7882
:10366C001A46019B9A42ECD80023184603B05DF829
:10367C0004FB00BF3030002030E902003430002061
:10368C0000B589B0039002910192029B9BB2ADF8F8
:10369C001430019B0693039B079305AB1A4600213C
:1036AC0044F2010000F050F800BF09B05DF804FBD3
:1036BC0086B003900291019201238DF817309DF88A
:1036CC001730204A039B13601E4A029B53601D4A0D
:1036DC00019B9360039B44F20102934212D044F28B
:1036EC000202934222D1019B164AD360154BDB6830
:1036FC001B881A46134B9A61124BDB685B68114AA4
:10370C00D36113E0019B0F4A13610E4B1B699B683D
:10371C000C4A53610B4B1B691B881A46094B9A6167
:10372C00084B1B695B68074AD36100BF72B600BFC8
:10373C009DF81730DBB2002BFAD162B600BF06B091
:10374C00704700BF6430002030B589B005900491FB
:10375C000392FFF793FC00BFFFF772FA0346002BAE
:10376C00FAD1059B41F20102934219D041F20102B8
:10377C00934202D8012B09D04AE044F20102934251
:10378C0028D044F20202934214D041E02D4B1B8806
:10379C001B0443F001032C491846FFF7C7F942E01C
:1037AC00284B1B881B0443F0010328491846FFF7DC
:1037BC00BDF938E0039B0793224B1B881B0443F095
:1037CC000100079B5B681A46079B1B882049FFF783
:1037DC00CCF928E0039B06931A4B1B881B0443F07F
:1037EC000104069B9D68069B9B68184602F0E2FA52
:1037FC0003461946069B5B681A46069B1B88019379
:10380C0000920B462A4613492046FFF7D8F90AE0E6
:10381C000C4B1B881B0443F00103049A0E491846F9
:10382C00FFF792F900BF0D4B1B6803F00103002B4F
:10383C0000D0FFDE039A04990598FFF739FF00BF0B
:10384C0009B030BD182A00208CE90200ACE9020056
:10385C00D0E90200ECE9020004EA0200F0ED00E01D
:10386C0084B00190019B9B680393019BDA68039BD6
:10387C00D31A184604B0704782B001900B468DF8ED
:10388C000330019B1A68019BDB68019989880B4006
:10389C0013449DF803201A70019BDB685A1C019B92
:1038AC00DA6000BF02B0704784B003900B460192FF
:1038BC00ADF80A30039B1A68039B9968BDF80A306F
:1038CC000B44039989880B4013441A78019B1A7096
:1038DC0000BF04B0704700B583B001900091009A0E
:1038EC0000210198FFF7E0FF019B9B685A1C019B8C
:1038FC009A6000BF03B05DF804FB84B003900291A2
:10390C001346ADF80630029B002B01D10E231DE0AF
:10391C00BDF80630002B07D0BDF806305A1EBDF896
:10392C0006301340002B01D009230FE0039B029AB1
:10393C001A60BDF80630013B9AB2039B9A80039B38
:10394C0000229A60039B0022DA600023184604B020
:10395C00704700B583B001900B468DF80330019889
:10396C00FFF77EFF0246019B9B889A4207D89DF881
:10397C00033019460198FFF77FFF002300E0042372
:10398C00184603B05DF804FB00B583B001900091BC
:10399C000198FFF765FF0346002B05D000990198AD
:1039AC00FFF799FF002300E00523184603B05DF8EC
:1039BC0004FB000082B003468DF8073007499DF9DF
:1039CC0007305B099DF8072002F01F02012000FA66
:1039DC0002F241F8232000BF02B0704700E100E082
:1039EC0082B003468DF8073008499DF907305B0912
:1039FC009DF8072002F01F02012000FA02F220338A
:103A0C0041F8232000BF02B0704700BF00E100E086
:103A1C0082B003468DF8073008499DF907305B09E1
:103A2C009DF8072002F01F02012000FA02F2403339
:103A3C0041F8232000BF02B0704700BF00E100E056
:103A4C0082B003468DF8073008499DF907305B09B1
:103A5C009DF8072002F01F02012000FA02F26033E9
:103A6C0041F8232000BF02B0704700BF00E100E026
:103A7C0082B0034600918DF807309DF90730002B7A
:103A8C000CDA0D499DF8073003F00F03043B009A44
:103A9C00D2B25201D2B20B441A7609E007499DF911
:103AAC000730009AD2B25201D2B20B4483F80023F1
:103ABC0000BF02B0704700BF00ED00E000E100E085
:103ACC0084B00190244B0393019B002B40D0234BDB
:103ADC001A680399019B00BF00BF00BF00BF00BF65
:103AEC0000BF00BF00BF8A422FD000BF00BF00BF85
:103AFC0000BF00BF00BF00BF00BF00BF00BF00BFC2
:103B0C0000BF00BF00BF00BF00BF00BF00BF00BFB1
:103B1C0000BF00BF00BF00BF00BF00BF00BF00BFA1
:103B2C0000BF00BF00BF00BF00BF00BF00BF00BF91
:103B3C0000BF00BF00BF00BF00BF00BF00BF00BF81
:103B4C0000BF00BF00BF00BF00BF013BC3D101934A
:103B5C0000BF04B0704700BF0024F400E82A002026
:103B6C0000B583B00190064A019BC2F808350721C5
:103B7C001120FFF77DFF00BF03B05DF804FB00BF11
:103B8C000010014008B50D4B4FF48032C3F84423AC
:103B9C000A4B4FF48032C3F804231120FFF750FF77
:103BAC001120FFF707FF054B01221A602F20FFF7AA
:103BBC0087FF034B01221A7000BF08BD00100140A3
:103BCC00A231002008B51120FFF70AFF0E4B4FF46D
:103BDC008032C3F848230C4B4FF48032C3F80823CF
:103BEC00094B01225A602F20FFF76AFF064B012276
:103BFC009A60064B00221A602F20FFF761FF044BDE
:103C0C0000221A7000BF08BD001001409431002042
:103C1C00A2310020024BD3F804351846704700BF80
:103C2C000010014082B001900091019A009BD31AC0
:103C3C0023F07F43184602B07047000082B0019019
:103C4C00034A019BC2F8403500BF02B0704700BF69
:103C5C000010014086B00190284B1B68002B03D14B
:103C6C00264A019B136045E0019B1A68234B1B6895
:103C7C001B689A4210D8214B1B68204A12681168A5
:103C8C00019A12688A1A1A601C4B1A68019BDA6135
:103C9C001A4A019B13602DE0019B1B680393174B81
:103CAC001B680593154B1B68049309E0049B1B6868
:103CBC00039AD31A0393049B0593049BDB69049327
:103CCC00049B002B04D0049B1A68039B9A42EDD3EF
:103CDC00049B002B05D0049B1A68039BD21A049BEF
:103CEC001A60019B039A1A60019B049ADA61059B86
:103CFC00019ADA6100BF06B0704700BF9031002016
:103D0C0000B587B001902A4B1B680393284B1B68A6
:103D1C000593059B049308E0049A019B9A4208D0F2
:103D2C00049B0593049BDB690493049B002BF3D148
:103D3C0000E000BF049B002B01D1002333E0059A67
:103D4C00049B9A4214D11A4B1B68DB69184A136006
:103D5C00174B1B68002B0BD1164B01229A60164B8C
:103D6C0000221A60154B01221A702F20FFF7A8FEB3
:103D7C00049B1B680293049BDA69059BDA61059B23
:103D8C00DB690493049B002B05D0049B1A68029BEF
:103D9C001A44049B1A60064B1B68039A9A4214BF80
:103DAC0001230023DBB2184607B05DF804FB00BF0B
:103DBC00903100200010014094310020A3310020EC
:103DCC0008B51120FFF724FE00BF08BD08B514206C
:103DDC00FFF71EFE00BF08BD00B583B00190019B2C
:103DEC005B69019A92691046984700BF03B05DF871
:103DFC0004FB000000B585B02B4B1B68002B4ED08C
:103E0C0000230193FFF706FF0246284B1B68194657
:103E1C001046FFF707FF0290234B1B6803931DE02E
:103E2C00039B1A68029B9A421CD8039B1B68029A3C
:103E3C00D31A0293039B1B68019A13440193039BAF
:103E4C000093039BDB690393009B1B7C002B05D029
:103E5C00009B00221A740098FFF7BEFF039B002BF7
:103E6C00DED100E000BF124B1A78124B1B789A423D
:103E7C000CD1104B1B780133DAB20E4B1A700D4B70
:103E8C001B78022B02D10B4B00221A70094B1B78AA
:103E9C001946094A019B42F82130FFF797FF00BFF2
:103EAC0005B05DF804FB00BF903100209431002078
:103EBC00A0310020A13100209831002082B0019067
:103ECC00184B1A78184B1B789A4223D0154B1B7839
:103EDC000133DAB2134B1A70124B1B78022B02D13E
:103EEC00104B00221A700F4B1B781A460F4B53F8CD
:103EFC002220019B1A60019B1A680D4B1B6813440E
:103F0C000B4A13600A4B1B6823F07F43084A13606B
:103F1C00012303E0019B00221A600023184602B023
:103F2C00704700BFA0310020A13100209831002043
:103F3C009431002088B003900291019200230793E2
:103F4C0038E0204B1B680693069B1A68039B9A4229
:103F5C0006D9069B1A68039BD21A069B1A602DE0A1
:103F6C00069B1B68039AD31A0393069B1B68079A3C
:103F7C0013440793069B00221A60124B1B6805938F
:103F8C00069BDB690F4A1360069BDB68002B11D084
:103F9C00029A079B134423F07F42069B5A60069BB0
:103FAC00DA68069B9A60019B1A68069BDA61019B92
:103FBC00059A1A60034B1B68002BC2D100BF08B0D6
:103FCC00704700BF9031002000B589B001900023EC
:103FDC008DF81F30664B1B680593AAE0019B002BE4
:103FEC0005D0019B0693069BDB69019361E0614B55
:103FFC001B781A4613465B001344DB005D4A1344DE
:10400C00043304935B4B1B780133DAB2594B1A70AF
:10401C00584B1A78574B9B789A4202D1554B002239
:10402C001A70049B5B680693049B1B78022B04D0CC
:10403C00032B1BD0012B1FD01DE0049B5B68184683
:10404C00FFF75EFE0346002B02D001238DF81F30D4
:10405C00069B00221A746CE0454B1B680393039B70
:10406C0000221A74039BDB69414A1360404B1B68A6
:10407C00002BF1D15DE05CE000BF069B1B7C002BAC
:10408C0000D056E0049B9A68069B5A60049BDA6841
:10409C00069B9A60049B1A69069BDA60049B5A691A
:1040AC00069B9A61344B1B78002B02D0069B002296
:1040BC005A60069B5A68314B1B68D31A23F07F4316
:1040CC002F4A93420ED8069B5A682C4B1B681946F4
:1040DC001046FFF7A7FD0246069B9B681A44069BF9
:1040EC001A6017E0254B1A68069B5B681946104648
:1040FC00FFF798FD0290069B9A68029B9A4206D99C
:10410C00069B9A68029BD21A069B1A6002E0069BD9
:10411C0000221A60069B00225A60069B00229A60BD
:10412C00069B01221A74069B0022DA610698FFF79F
:10413C0091FD019B002B7FF451AF0E4B1A780D4B68
:10414C005B789A427FF44AAF9DF81F30002B04D164
:10415C00074B1A68059B9A4201D0012300E000230B
:10416C0003F00103DBB2184609B05DF804FB00BF95
:10417C009031002084300020A331002094310020A5
:10418C00FEFF7F0010B588B00190274B1B68002BF9
:10419C0044D0254B1B681B680793FFF73BFD06902B
:1041AC00224B1B68059305990698FFF73BFD0346C8
:1041BC00033304931E4B1B7883F00103DBB2002BFB
:1041CC0001D0FFF7DFFC049A079B934238BF1346DC
:1041DC00059A13440593059B23F07F43059305989B
:1041EC00FFF72CFDFFF716FD039006990398FFF7D8
:1041FC0019FD0346DC1C06990598FFF713FD0346D1
:10420C009C420DD9FFF706FD03461846FFF716FD35
:10421C002F20FFF755FCFFF7D3FD01E0FFF7D2FC91
:10422C0000BF08B010BD00BF9031002094310020B9
:10423C00A231002000B587B00023019300238DF834
:10424C001730194B1B680493184B1B6803936B4670
:10425C001846FFF733FE03468DF80B309DF80B30F4
:10426C00002B08D0009B01AA04991846FFF762FEA8
:10427C0001238DF81730019B1846FFF7A5FE034666
:10428C00002B02D001238DF817309DF81730002B2E
:10429C0002D00398FFF776FF054B00221A7000BF7F
:1042AC0007B05DF804FB00BF943100209031002072
:1042BC00A331002082B003468DF80730034A9DF8E5
:1042CC000730537000BF02B0704700BF843000202D
:1042DC0084B00190144B5B7801338DF80F30124B86
:1042EC009B789DF80F209A4202D100238DF80F3055
:1042FC000D4B1B789DF80F209A4201D100230FE043
:10430C00019B9DF80F201A70074B5B781A461346D9
:10431C005B001344DB00044A134404330293029BF6
:10432C00184604B0704700BF8430002000B589B037
:10433C0003900291019200930023079300238DF8C0
:10434C0016300DF11603184600F042FB0DF1170361
:10435C001846FFF7BDFF0690069B002B02D10423E5
:10436C00079318E0069B01221A70069B039A5A6069
:10437C00FFF750FC0246069B9A60069B029ADA6095
:10438C00069B019A1A61069B009A5A619DF8173098
:10439C001846FFF78FFF9DF81630184600F02EFBDD
:1043AC00079B002B01D1FFF711FD079B184609B0A5
:1043BC005DF804FB00B587B001900B468DF8033017
:1043CC000023059300238DF80E300DF10E031846D3
:1043DC0000F0FEFA0DF10F031846FFF779FF049079
:1043EC00049B002B02D1042305930BE0049B9DF846
:1043FC0003201A70049B019A5A609DF80F301846DE
:10440C00FFF758FF9DF80E30184600F0F7FA059BA1
:10441C00002B01D1FFF7DAFC059B184607B05DF8BD
:10442C0004FB000008B50E4B0022C3F840210C4BD6
:10443C000022C3F844210A4B0022C3F84821084B40
:10444C000022C3F84C21064B0022C3F80021044B78
:10445C000022C3F80421FFF7CDFC00BF08BD00BF4C
:10446C000010014008B5FFF7E5FE00BF08BD0000D5
:10447C0008B5FFF7A7FB134B00221A70114B002253
:10448C005A70104B0B229A700F4B00221A600F4B74
:10449C0000221A700E4B00221A701420FFF7D0FA6B
:1044AC0007211420FFF7E4FA1420FFF783FA002009
:1044BC00FFF756FBFFF7AEFB0246064B1A600023D4
:1044CC00184608BD8430002090310020A031002017
:1044DC00A13100209431002086B003900B4601924C
:1044EC008DF80B30134B9B78002B01D108231EE069
:1044FC00019B002B01D1072319E0039B002B01D159
:10450C00072314E0039B1B681B7C002B01D00823A2
:10451C000DE0039B1B680593059B00221A74059BF9
:10452C009DF80B205A74059B019A5A61002318467A
:10453C0006B070478430002000B587B0039002911C
:10454C000192039B0593144B9B78002B01D10823FC
:10455C001EE0039B002B01D1082319E0029B042BC6
:10456C0001D8072314E0059B5B69002B01D10823BC
:10457C000EE0059B5B7C012B01D1029B00E000232C
:10458C000493019B049A02990598FFF7CFFE03460A
:10459C00184607B05DF804FB8430002000B585B0E8
:1045AC000190019B03930D4B9B78002B01D10823A9
:1045BC0010E0019B002B03D0039B5B69002B01D106
:1045CC00082307E0039B00221A7402210398FFF7CB
:1045DC00F1FE0346184605B05DF804FB843000205C
:1045EC0084B00190019B9B680393019BDA68039B49
:1045FC00D31A184604B0704700B587B001900091EB
:10460C00019B1B78012B04D0022B38D0002B47D0F8
:10461C005CE0019B5B681B7819462E48FFF799F903
:10462C000590059B002B0AD001238DF80C30059BBF
:10463C000493294B1B6803AA104698470DE02548A4
:10464C00FFF7CEFF0346002B07D000238DF80C306C
:10465C00214B1B6803AA104698471E48FFF7C0FF62
:10466C0002461C4B9B889A4205D801221B491C48C8
:10467C0003F036FE2AE01B4B01221A7026E00223BF
:10468C008DF80C30019BDB6804930122134914480C
:10469C0003F026FE104B1B6803AA1046984715E042
:1046AC0011491248FFF770F90346002B05D101227E
:1046BC000D490B4803F00AFC07E003238DF80C307E
:1046CC00054B1B6803AA1046984700BF00BF07B0F4
:1046DC005DF804FBB0310020A4310020AC31002087
:1046EC00D42A0020AD310020A8310020C031002098
:1046FC0030B58FB00390029101928DF803303E4A91
:10470C00019B1360029B002B01D1072371E0029BDC
:10471C001968029B5B689BB21A463848FFF7EDF8A4
:10472C000D900D9B002B01D00D9B62E0029B9968B4
:10473C00029BDB689BB21A463148FFF7DEF80D90FE
:10474C000D9B002B01D00D9B53E02E4B05AC1D4651
:10475C000FCD0FC495E80F0084E80F00039B5B6935
:10476C000B93039B1B7C002B14BF01230023DBB298
:10477C008DF828309DF803308DF83030039B5B7C2E
:10478C00002B01D00E2300E000238DF82930039B71
:10479C00DB680793039B9B680893039B1B6806933A
:1047AC00039B5B68059305AB174A1946174803F042
:1047BC0047FA0D900D9B002B01D00D9B19E0144B6B
:1047CC0000221A70039B1B68B3F1FF3F10D09DF8B9
:1047DC00313083F00103DBB2002B02D00B4803F025
:1047EC0043FE01220B49094803F07AFD034600E021
:1047FC00002318460FB030BDA4310020B03100208A
:10480C00C03100201CEA020005460200D42A002018
:10481C00AD310020AC31002000B587B00190019B78
:10482C00002B03D11449C92004F028FE134B1B782C
:10483C008DF8173001991248FFF7A6F804909DF8EF
:10484C001730002B12D00D4B00221A7001220D498B
:10485C000D4803F045FD0390039B0293029B002B34
:10486C0004D0054AD5210298FEF70AFF049B18468E
:10487C0007B05DF804FB00BF3CEA0200AD3100203C
:10488C00B0310020AC310020D42A002000B585B016
:10489C0003468DF807309DF8073019461048FFF78E
:1048AC0058F80390039B002B15D10E4803F07AFBAC
:1048BC00034683F00103DBB2002B0CD00A490848F5
:1048CC00FFF762F80346002B05D101220649054883
:1048DC0003F0FCFA0390039B184605B05DF804FB4B
:1048EC00C0310020D42A0020A831002082B0EFF380
:1048FC0010830093009B019372B6019B184602B083
:10490C00704762B600BF704700B585B00190FFF7E5
:10491C00EDFF0390164B9B68002B1BD1144B01220F
:10492C009A60144BD3F88020134B1340104A136039
:10493C00104B114AC3F880200E4BD3F884300C4A2C
:10494C0053600C4B4FF0FF32C3F88420019B0022C4
:10495C001A7002E0019B01221A70039B002B01D1FB
:10496C00FFF7CFFF0023184605B05DF804FB00BF2E
:10497C00D031002000E100E0FC06FFBD00B585B0A1
:10498C0003468DF80730104B9B68002B16D09DF812
:10499C000730002B12D1FFF7A9FF03900B4A0A4BEB
:1049AC001B681360094A084B5B685360064B002276
:1049BC009A60039B002B01D1FFF7A3FF002318463D
:1049CC0005B05DF804FB00BFD031002000E100E031
:1049DC0000B583B0019000F02BF80346012B03D0F7
:1049EC000549432004F04AFD0198FFF78DFF00BFF5
:1049FC0003B05DF804FB00BF98EA020000B583B079
:104A0C0003468DF8073000F013F80346012B03D052
:104A1C000649512004F032FD9DF807301846FFF787
:104A2C00ADFF00BF03B05DF804FB00BF98EA0200C5
:104A3C0084B0EFF305830193019BC3F30803039345
:104A4C00039B002B0DD1EFF314830093009B029377
:104A5C00029B03F00103002B0CBF01230023DBB2EC
:104A6C0000E00123184604B0704786B00190009115
:104A7C00019B53E8021F1FFAA1F2D888824202BFA1
:104A8C00BFF32F8F00230DE0D8890244988982420E
:104A9C0028BF121AC1EA024243E802200028E8D1DA
:104AAC004FF001038DF80F30059002910492029A99
:104ABC00009B1A609DF80F30DBB2184606B07047A9
:104ACC0084B00190019951E8023FC3EA234341E8C5
:104ADC000232002AF7D10392029300BF04B0704750
:104AEC0000B583B001900091009B19460198FFF727
:104AFC00BCFF0346002B05D0019B1B68009A528813
:104B0C00134400E00023184603B05DF804FB00B525
:104B1C0083B001900091009B1A88009B5B889A429D
:104B2C0004D10198FFF7CCFF012300E000231846C5
:104B3C0003B05DF804FB000000B583B001900B4698
:104B4C008DF80330019B002B03D10849AF2004F0F2
:104B5C0095FC019BDA689DF803300199098A01FBE9
:104B6C0003F31344184603B05DF804FB00EB02009A
:104B7C0000B583B001900091019B002B03D1084933
:104B8C00BC2004F07BFC009B019AD2689B1A019A12
:104B9C00128AB3FBF2F3DBB2184603B05DF804FBE8
:104BAC0000EB020000B585B00190019B002B01D1F8
:104BBC000E2349E0019B1B68002B03D12449C6201E
:104BCC0004F05CFC019B5B68002B03D12049C720DF
:104BDC0004F054FC019B9B68002B03D11C49C8209A
:104BEC0004F04CFC019BDB68002B03D11849C92055
:104BFC0004F044FC019B1B8A002B03D11449CA20EE
:104C0C0004F03CFC019B9B681A46019B5B68D31A21
:104C1C008DF80F30019B1B68019A52681A6007E0EF
:104C2C00019B1A681368591C11609DF80F201A70AB
:104C3C009DF80F305A1E8DF80F20002BF0D1019BE0
:104C4C001B6800221A710023184605B05DF804FB9E
:104C5C0000EB020000B585B00190019B002B03D145
:104C6C001F49EC2004F00AFC0023039300238DF869
:104C7C000A300DF10A031846FFF7AAFE019B1B68C8
:104C8C001A68019B5B689A4220D9019B1B681A68C1
:104C9C00013A1A601B681B7819460198FFF74CFF04
:104CAC000390019B9B681A46019B1B681B68D31AD7
:104CBC008DF80B30019B1B681B799DF80B209A42D9
:104CCC0004D9019B1B689DF80B201A719DF80A30C2
:104CDC001846FFF793FE039B184605B05DF804FBDE
:104CEC0000EB020010B584B001900091019B002BE9
:104CFC0004D115494FF4887004F0C0FB009B002BC5
:104D0C0004D1114940F2111004F0B8FB009B03933D
:104D1C0000238DF80B300DF10B031846FFF758FEEE
:104D2C00019B1B681C68621C1A6003990198FFF7B1
:104D3C001FFF034623709DF80B301846FFF75EFEED
:104D4C0000BF04B010BD00BF00EB020000B583B083
:104D5C000190019B002B03D10C49312004F08EFBF8
:104D6C00019B9B68002B0CD0019B5B69019A10691D
:104D7C00019A1168019A92689847019B00229A60E7
:104D8C0000E000BF03B05DF804FB00BF5CEB020069
:104D9C000EB400B584B00190019B002B03D11849CF
:104DAC00422004F06BFB019B5B69002B03D114497F
:104DBC00432004F063FB019B1B68002B03D11049BB
:104DCC00442004F05BFB019B5B68002B03D10C4976
:104DDC00452004F053FB059B002B0AD000230393C2
:104DEC0006AB039303AB1A460599019800F0B0F992
:104DFC0000E000BF04B05DF804EB03B0704700BFE7
:104E0C005CEB020000B583B001900B468DF80330CB
:104E1C00019B1A68019B9B68581C0199886013447C
:104E2C009DF803201A70019B9A68019B5B689A425B
:104E3C0002D30198FFF78AFF00BF03B05DF804FBB3
:104E4C0000B587B003900291019200930023059363
:104E5C00009B03F00103002B24D00BE0029B0133D9
:104E6C000293059B013305939DF813301946039863
:104E7C00FFF7C8FF029B1B788DF813309DF8133099
:104E8C00002BEBD106E0019B013B01932021039801
:104E9C00FFF7B8FF019A059B9A422ED9019B002B74
:104EAC00F1D12AE0029B002B0BD0029809F004F8F8
:104EBC00059006E0019B013B019320210398FFF72D
:104ECC00A1FF019A059B9A420FD9019B002BF1D1AE
:104EDC000BE0029B01330293059B013305939DF874
:104EEC00133019460398FFF78DFF029B1B788DF842
:104EFC0013309DF81330002BEBD100BF07B05DF8D9
:104F0C0004FB000000B589B003900291019200935C
:104F1C00029B07930123069307E0079A019BB2FBC0
:104F2C00F3F30793069B01330693079A019B9A426E
:104F3C00F3D2009A069B9A4201D9009B06930B9BD5
:104F4C0003F00103002B22D10A9B002B1FD00B9BDB
:104F5C0003F00203002B06D0009B002B03D130235F
:104F6C008DF8173002E020238DF8173008E00A9BEB
:104F7C00013B0A939DF8173019460398FFF742FF3F
:104F8C000A9B002B03D0069A0A9B9A42EFD301236B
:104F9C000793009B012B03D9009B013B009309E075
:104FAC00029A079BB2FBF3F30493049A019B9A4277
:104FBC0000D205E0079B019A02FB03F30793E8E795
:104FCC00029A079BB2FBF3F30493049B079A02FB30
:104FDC0003F3029AD31A0293154A049B13441B78C9
:104FEC0019460398FFF70EFF079A019BB2FBF3F3E8
:104FFC000793079B002BE3D10B9B03F00103002BC2
:10500C0011D00A9B002B0ED006E00A9B013B0A93A1
:10501C0020210398FFF7F6FE0A9B002B03D0069A7B
:10502C000A9B9A42F1D300BF09B05DF804FB00BFA4
:10503C0004EC020000B589B0059004910392029330
:10504C00049B002BB8BF5B4206930123079307E038
:10505C00039B069A92FBF3F30693079B013307938A
:10506C00039B069A9A42F3DA029A079B9A4201D959
:10507C00029B07930A9B002B0AD0049B002B04DB9A
:10508C000B9B03F00403002B02D00A9B013B0A93F9
:10509C000B9B03F00203002B02D0029B002B16D0BB
:1050AC000B9B03F00103002B11D10A9B002B0ED09C
:1050BC0006E00A9B013B0A9320210598FFF7A2FE0C
:1050CC000A9B002B03D0079A0A9B9A42F1D3049BAC
:1050DC00002B07DA049B5B4204932D210598FFF704
:1050EC0091FE08E00B9B03F00403002B03D02B2153
:1050FC000598FFF787FE0B9B03F00203002B19D0DA
:10510C000B9B03F00103002B14D1029B002B11D13C
:10511C000A9B002B0ED006E00A9B013B0A93302120
:10512C000598FFF76FFE0A9B002B03D0079A0A9B8A
:10513C009A42F1D304990B9B01930A9B0093029B17
:10514C00039A0598FFF7DEFE00BF09B05DF804FB7B
:10515C0000B58FB0059004910392059B002B04D1F0
:10516C00C8494FF49F7004F089F9059B5B69002BCB
:10517C0004D1C4494FF4A07004F080F9059B1B685E
:10518C00002B04D1BF4940F2411004F077F9059B84
:10519C005B68002B04D1BB494FF4A17004F06EF98D
:1051AC00049B002B00F0ED81049B1B788DF83730AD
:1051BC00049B013304939DF83730002B00F0D88109
:1051CC009DF83730252B40F0C78100230A9301232B
:1051DC000C93049B1B788DF837309DF837302D2BB2
:1051EC0004D0302B0AD02B2B10D017E00A9B43F0A5
:1051FC0001030A93049B0133049312E00A9B43F0CE
:10520C0002030A93049B013304930AE00A9B43F0C4
:10521C0004030A93049B0133049302E000230C93D0
:10522C0000BF0C9B002BD4D1002309939DF8373081
:10523C002A2B0CD1039B1B68191D039A11601B6848
:10524C00099A13440993049B013304931AE0049BB9
:10525C001B788DF837309DF837302F2B12D99DF8ED
:10526C003730392B0ED8049B01330493099A13461B
:10527C009B0013445B001A469DF837301344303BB7
:10528C000993D3E700230B93049B1B788DF83730DD
:10529C009DF837302E2B1DD1049B01330493049BB6
:1052AC001B788DF837309DF837302F2B12D99DF89D
:1052BC003730392B0ED8049B013304930B9A1346C9
:1052CC009B0013445B001A469DF837301344303B67
:1052DC000B93E4E7049B1B788DF837309DF837303F
:1052EC006C2B03D09DF83730682B07D1049B01330E
:1052FC000493049B1B788DF83730EFE79DF837301B
:10530C00253B532B00F2238101A252F823F000BF5E
:10531C00515502005B5502005B5502005B550200C3
:10532C005B5502005B5502005B5502005B550200A9
:10533C005B5502005B5502005B5502005B55020099
:10534C005B5502005B5502005B5502005B55020089
:10535C005B5502005B5502005B5502005B55020079
:10536C005B5502005B5502005B5502005B55020069
:10537C005B5502005B5502005B5502005B55020059
:10538C005B5502005B5502005B5502005B55020049
:10539C005B5502005B5502005B5502005B55020039
:1053AC005B5502005B5502005B5502005B55020029
:1053BC005B5502005B5502005B5502005B55020019
:1053CC005B5502005B5502005B5502005B55020009
:1053DC005B5502005B5502005B550200DD54020078
:1053EC005B5502005B5502005B5502005B550200E9
:1053FC005B5502005B5502005B5502005B550200D9
:10540C005B5502005B5502006D540200955402007E
:10541C005B5502005B5502005B5502005B550200B8
:10542C00955402005B5502005B5502005B5502006F
:10543C005B5502005B5502005B5502001D550200D6
:10544C005B5502005B550200015502005B550200E2
:10545C00B95402005B5502005B550200DD5402009A
:10546C00039B1B68191D039A11601B680C930C9B02
:10547C008DF823309DF8233019460598FFF7C2FCB0
:10548C0066E000BFACEB0200039B1B68191D039A7E
:10549C0011601B680C930A9B0193099B00930B9B57
:1054AC000A220C990598FFF7C5FD51E0039B1B6878
:1054BC00191D039A11601B680C930C990A9B01939C
:1054CC00099B00930B9B0A220598FFF71BFD3FE0FD
:1054DC00039B1B68191D039A11601B680C930C9994
:1054EC000A9B0193099B00930B9B10220598FFF7D5
:1054FC0009FD2DE0039B1B68191D039A11601B68A5
:10550C0007930A9B099A07990598FFF799FC1FE0E6
:10551C00039B1B68191D039A11601B680C933021A7
:10552C000598FFF76FFC78210598FFF76BFC0C9939
:10553C000023019308230093082310220598FFF7FA
:10554C00E1FC05E025210598FFF75CFC00E000BFBD
:10555C00049B0133049305E09DF8373019460598F8
:10556C00FFF750FC049B1B78002B7FF41DAE00E072
:10557C0000BF059B1B7B002B04D00598FFF7E6FBB7
:10558C0000E000BF0FB05DF804FB00BF00B585B0B4
:10559C000190019B002B03D0019B1B68002B28D191
:1055AC000023039319E0039A13469B0013449B00BA
:1055BC001A46154B13440193019B1B68002B09D011
:1055CC00019B1B68DB69019898470346002B01D0AF
:1055DC00012314E0039B013303930C4A0A4BD31AA7
:1055EC000B4AA2FB03231B09039A9A42DBD3002329
:1055FC0005E0019B1B68DB69019898470346184638
:10560C0005B05DF804FB00BF902A0020902A002012
:10561C00CDCCCCCC29DF704700BF184628DF7047B3
:10562C0000BF184600B589B001900091019B1B6822
:10563C009B68002B31D003AB00221A605A609A6031
:10564C00DA601A61009B0493019B9B680793019B92
:10565C001B79002B02D0012B0AD017E001238DF807
:10566C000C30019B1B690593019B5B6906930DE054
:10567C0002238DF80C30019BDB684FF4805202FB47
:10568C0003F30593019B5B69069300BF019B1B68A9
:10569C009B6803AA1046984700E000BF09B05DF86C
:1056AC0004FB00B587B00190019B5A69019B9B6973
:1056BC00D31AB3F5805F28BF4FF4805305930422AF
:1056CC00059BB3FBF2F3012B38BF01230593019B20
:1056DC001A69019B9B6913440493019BDB681A466E
:1056EC00019B9B6913440393059A03990498FFF754
:1056FC0091FF0346184607B05DF804FB00B583B074
:10570C000190019BDA68019B1B6913441846FFF753
:10571C0085FF0346184603B05DF804FB08B5034B40
:10572C0003491846FFF7F3F900BF08BDDC31002030
:10573C000432002008B5084B08491846FFF7D0F989
:10574C000246074B1A60064B1B68002B14BF012343
:10575C000023DBB2184608BDDC31002004320020E7
:10576C000032002000B583B0294B1B7A002B0BD1E3
:10577C00FFF7E0FF034683F00103DBB2002B03D0FD
:10578C00234B00225A6040E0214B02221A72214B1B
:10579C001B681B79002B02D0012B07D00DE01D4B91
:1057AC001B681846FFF77DFF019009E0194B1B6839
:1057BC001846FFF7A3FF019002E00323019300BFFB
:1057CC00019B002B02D0112B0CD00FE0104B1B7C3B
:1057DC0083F00103DBB2002B16D00021022000F075
:1057EC006DF811E00A4B01221A720EE0094B1B688E
:1057FC0003211846FFF716FF054B00221A72044BC3
:10580C0000225A6000BF00E000BF03B05DF804FB4B
:10581C00EC3100200032002084B001901B4B0022A0
:10582C00DA60019B1B79002B02D0012B19D028E0E8
:10583C00019B5A69019B9B69D31AB3F5805F28BF02
:10584C004FF480530393019B9A69039B1A44019B69
:10585C009A61019B9A69019B5B699A420ED1012363
:10586C0010E0019B1B695A1C019B1A61019B1A6970
:10587C00019B5B699A4203D1012303E000BF00E066
:10588C0000BF0023184604B0704700BFEC31002065
:10589C0082B00190084BDB680133074AD360064B9A
:1058AC00DB68082B04D9044B0022DA60012300E0EA
:1058BC000023184602B07047EC31002000B585B0CB
:1058CC0001900091244B1B7A012B33D0022B00D07A
:1058DC003FE000238DF80F30019B022B02D0032BED
:1058EC0009D011E01D4B1B681846FFF795FF0346C6
:1058FC008DF80F3008E0194B1B681846FFF7C8FFEE
:10590C0003468DF80F3000BF9DF80F30002B13D0DD
:10591C00114B00221A72114B1A68019B022B01D1F8
:10592C00002300E00D2319461046FFF77BFEFFF71E
:10593C00F5FE01E000BF00E000BF074B5B7C83F08D
:10594C000103DBB2002B02D0FFF70CFF01E007F0E4
:10595C0029FE05B05DF804FBEC310020003200207C
:10596C0082B0034600918DF80730064B01225A7421
:10597C00044B1B7A002B0CBF01230023DBB218460F
:10598C0002B07047EC31002000B583B003460091A3
:10599C008DF807309DF80730012B03D09DF80730A8
:1059AC00032B0DD1084B00225A749DF80730012BA4
:1059BC000CBF01230023DAB2034B1A74FFF7D2FE9B
:1059CC0000BF03B05DF804FBEC31002010B487B0CD
:1059DC0001900091019B009A53E8004F04EB0200E8
:1059EC0043E8000191F0000FF6D105940490039167
:1059FC00049B184607B05DF8044B704710B487B091
:105A0C0001900091019B009A53E8004FA4EB020017
:105A1C0043E8000191F0000FF6D105940490039136
:105A2C00049B184607B05DF8044B704700B583B073
:105A3C0001900198FFF7B6F80346184603B05DF8DD
:105A4C0004FB00B58BB001900091019B1B8A043BB9
:105A5C000793009A079B1344DA1C079BB2FBF3F3E2
:105A6C008DF81B300198FFF7F5F80590059B002B7E
:105A7C0001D1002338E0059B00221A71059B0122FD
:105A8C005A71079B9AB2059BDA80059B09939DF886
:105A9C001B30013B0493099B019A1A600023089365
:105AAC001DE00198FFF7D6F80390039B002B0ED056
:105ABC00059B5B790133DAB2059B5A71099B039AFA
:105ACC001A60039B019A1A60039B099304E00598E2
:105ADC0000F00EF8002307E0089B01330893089AA6
:105AEC00049B9A42DDD3059B18460BB05DF804FB72
:105AFC0000B58BB00190019B0793079B5B798DF8E8
:105B0C001B30019B08939DF81B30013B0593002330
:105B1C00099305E0089B1B680893099B01330993C3
:105B2C00099A059B9A42F5D3089B1B680493019B29
:105B3C000893002309930BE0089B1B6803930899B7
:105B4C000498FFF7CFF8039B0893099B0133099343
:105B5C009DF81B20099B9A42EED800BF0BB05DF854
:105B6C0004FB00B585B00190019B0393039B0433A8
:105B7C0001211846FFF72AFF00BF05B05DF804FBB2
:105B8C0000B587B00190019B0593059B043301215F
:105B9C001846FFF733FF0346039303AB0493049BB0
:105BAC001B78002B02D10198FFF7A2FF00BF07B0B2
:105BBC005DF804FB00B58DB0039002910192009347
:105BCC00039B0693069BDB880593039B0B93009B1F
:105BDC001A1D059BB2FBF3F30A93009B0433059A41
:105BEC00B3FBF2F2059901FB02F29B1A0993009A9E
:105BFC00019B1A44059B1344DA1C059BB2FBF3F37F
:105C0C008DF81330069B5B799DF813209A420AD9C4
:105C1C002749BA2003F032FC05E00B9B1B680B9361
:105C2C000A9B013B0A930A9B002BF6D10023089395
:105C3C00059A099BD31A0793079A019B934228BF95
:105C4C00134607932DE09DF83830002B0BD0029AA9
:105C5C00089BD0180B9A099B13440433079A1946D6
:105C6C0008F082F80AE00B9A099B1344181D029A5B
:105C7C00089B1344079A194608F076F800230993F9
:105C8C000B9B1B680B93019A079BD31A0193089AE1
:105C9C00079B13440893059A019B934228BF134614
:105CAC000793019B002BCED100BF0DB05DF804FB18
:105CBC0014EC020000B587B0059004910392029396
:105CCC0000230093029B039A04990598FFF772FF37
:105CDC0000BF07B05DF804FB00B587B005900491D8
:105CEC000392029301230093029B039A0499059853
:105CFC00FFF760FF00BF07B05DF804FB00B583B091
:105D0C0001900091019B002B03D11049502003F00E
:105D1C00B5FB009B002B03D10C49512003F0AEFBCB
:105D2C00019B009A1A60019B1B681A68019B5A60C0
:105D3C00019B5A68019B1B685B689A4202D1019BCC
:105D4C0000225A6000BF03B05DF804FB74ED020042
:105D5C0000B583B00190019B002B03D11449632043
:105D6C0003F08CFB019B1B68002B03D110496420B2
:105D7C0003F084FB019B5B68002B14D0019B5B68D8
:105D8C001A46019B1B689B6813441A46019B5A6078
:105D9C00019B5A68019B1B685B689A4204D1019B6A
:105DAC0000225A6000E000BF03B05DF804FB00BFA6
:105DBC0074ED020000B585B00190019800F00EF86A
:105DCC000390039B002B01D0039B00E0024B184671
:105DDC0005B05DF804FB00BFE8ED020086B0019051
:105DEC00164B0593164B04931FE0049A059BD31A8C
:105DFC00DB10DA0F13445B10DB00059A134403939A
:105E0C00039B1B680293029A019B9A4202D9039B43
:105E1C0004930AE0029A019B9A4203D2039B083333
:105E2C00059302E0039B5B6804E0059A049B9A428D
:105E3C00DBD30023184606B0704700BF04F1020004
:105E4C00F4F1020000B583B001900091019BDBB22C
:105E5C001846FEF71BFD019B184603B05DF804FBCA
:105E6C0082B001900B46ADF80230019B1A68BDF868
:105E7C000230012101FA03F31A43019B1A6000BF9F
:105E8C0002B0704782B001900B46ADF80230019B16
:105E9C001A68BDF80230012101FA03F3DB431A4002
:105EAC00019B1A6000BF02B0704782B001900B4694
:105EBC00ADF80230BDF80230012202FA03F31A46A3
:105ECC00019B1340002B14BF01230023DBB21846A7
:105EDC0002B0704700B585B001900023ADF80E30CC
:105EEC0010E0BDF80E3019460198FFF7DEFF0346AF
:105EFC00002B02D0BDF80E300AE0BDF80E30013395
:105F0C00ADF80E30BDF80E301F2BEAD94FF6FF73EB
:105F1C00184605B05DF804FB00B587B005900491F8
:105F2C0011461A460B46ADF80E3013468DF80D305F
:105F3C00BDF80E209DF80D300093134601220499F4
:105F4C00059800F004F800BF07B05DF804FB00B53D
:105F5C0087B0039002910192ADF80230039B002BA5
:105F6C003BD0029B002B38D0019B002B35D000235B
:105F7C0005932FE0059B5B00039A13441B88BDF827
:105F8C0002209A4223D1002304931BE09DF8203079
:105F9C00002B0AD0049B9B00029A1344059A92B2E0
:105FAC0011461846FFF75CFF09E0049B9B00029A20
:105FBC001344059A92B211461846FFF763FF049BEF
:105FCC0001330493049A019B9A42DFD305E0059BAD
:105FDC0001330593059B1F2BCCD907B05DF804FB4F
:105FEC0000B597B003900291019200230493029B99
:105FFC00002B1ED00023159318E0159B9BB219465D
:10600C000198FFF752FF0346002B0CD0049B5A1C3F
:10601C000492159A520002990A4412885B0016A940
:10602C000B4423F8442C159B01331593159B1F2B04
:10603C00E3D9039B184604AB4422194607F094FE9F
:10604C00039817B05DF804FB00B583B00190019B79
:10605C001B682F2B04D90B494FF4E87003F00EFA90
:10606C00019B1B681F2B02D84FF0A04306E0019B3D
:10607C001B6803F01F02019B1A60034B184603B008
:10608C005DF804FBF4F102000003005000B585B08C
:10609C000190084611461A4603468DF803300B460C
:1060AC008DF8023013468DF8013001AB1846FFF71E
:1060BC00CBFF0390019A9DF803109DF802305B0012
:1060CC0019439DF801309B0019439DF818301B02B1
:1060DC0019439DF81C301B041943039B02F5E07215
:1060EC0043F8221000BF05B05DF804FB00B585B085
:1060FC00039000230193002300930023012201212C
:10610C000398FFF7C3FF00BF05B05DF804FB00B5B3
:10611C0085B0019001AB1846FFF796FF0390019BE9
:10612C00012202FA03F31946039800F086F800BF27
:10613C0005B05DF804FB00B585B0019001AB1846C5
:10614C00FFF782FF0390019B012202FA03F3194629
:10615C00039800F07CF800BF05B05DF804FB00B5B7
:10616C0085B0019001AB1846FFF76EFF0390039BBF
:10617C00D3F804350293029BDA43019B012101FA07
:10618C0003F31A40039BC3F80825019B01229A4094
:10619C00029B1A40039BC3F80C2500BF05B05DF8A9
:1061AC0004FB00B583B001900091009B002B03D140
:1061BC000198FFF7C0FF02E00198FFF7A8FF00BFAE
:1061CC0003B05DF804FB00B585B0019001AB184637
:1061DC00FFF73AFF0390039800F01FF80246019B6B
:1061EC0022FA03F303F00103184605B05DF804FB33
:1061FC0000B585B0019001AB1846FFF725FF039061
:10620C00039800F012F80246019B22FA03F303F004
:10621C000103184605B05DF804FB82B00190019BA8
:10622C00D3F81035184602B0704782B00190019B2C
:10623C00D3F80435184602B0704782B00190009133
:10624C00019B009AC3F8082500BF02B0704782B0CA
:10625C0001900091019B009AC3F80C2500BF02B07D
:10626C007047000000B585B00190019B032B03D94A
:10627C001149372003F002F9104A019B13441B7893
:10628C001846FFF7B5FF0346002B14BF012300236C
:10629C008DF80F309DF80F30002B14BF0123002315
:1062AC00DBB283F00103DBB203F00103DBB218466F
:1062BC0005B05DF804FB00BF2CF2020078F202007E
:1062CC0000B583B00190019B032B03D907493E20F5
:1062DC0003F0D4F8064A019B13441B78002118469E
:1062EC00FFF75FFF00BF03B05DF804FB2CF2020068
:1062FC0078F2020000B583B00190019B032B03D907
:10630C000749442003F0BAF8064A019B13441B7852
:10631C0001211846FFF745FF00BF03B05DF804FBF1
:10632C002CF2020078F2020000B583B00023019336
:10633C0005E00198FFF7DEFF019B01330193019B00
:10634C00032BF6D900BF03B05DF804FB00B583B096
:10635C000023019305E00198FFF7B2FF019B013385
:10636C000193019B032BF6D900BF03B05DF804FB2E
:10637C0000B583B00190019B032B03D907495C2026
:10638C0003F07CF8064A019B13441B781846FFF770
:10639C00E6FE00BF03B05DF804FB00BF2CF2020068
:1063AC0078F2020000B583B00023019309E0094A9A
:1063BC00019B13441B781846FFF798FE019B013391
:1063CC000193019B032BF2D9FFF7AEFF00BF03B083
:1063DC005DF804FB78F2020000B585B00190019BDA
:1063EC00032B03D91149832003F048F8104A019B71
:1063FC0013441B781846FFF7E6FE0346002B14BF28
:10640C00012300238DF80F309DF80F30002B14BFA3
:10641C0001230023DBB283F00103DBB203F00103A1
:10642C00DBB2184605B05DF804FB00BF2CF202008D
:10643C007CF2020084B001904FF0FF3302930023F2
:10644C0003930DE00A4A039B13441B781A46019BE5
:10645C009A4202D1039B029305E0039B0133039301
:10646C00039B032BEED9029B184604B0704700BF68
:10647C007CF2020000B583B00190019B032B03D981
:10648C000549A22002F0FAFF044A019B13441B7831
:10649C00184603B05DF804FB2CF202007CF20200FB
:1064AC0082B003468DF8073008499DF907305B0927
:1064BC009DF8072002F01F02012000FA02F220339F
:1064CC0041F8232000BF02B0704700BF00E100E09C
:1064DC0082B001904FF08042019BC2F8083300BF9C
:1064EC0002B0704782B003468DF807309DF8073034
:1064FC0003F1804301221A6000BF02B0704784B0E0
:10650C000346ADF80630BDF8063003F18043002297
:10651C001A60BDF8063003F180431B680393039B9C
:10652C0000BF04B0704782B00346ADF80630BDF82A
:10653C00063003F180431B68002B14BF012300239A
:10654C00DBB2184602B0704782B003468DF80730B4
:10655C004FF080429DF8073003F00303C2F8183562
:10656C0000BF02B070474FF08043D3F818341B0CB7
:10657C0003F00103002B14BF01230023DBB21846E8
:10658C007047000082B003468DF807300A4A9DF927
:10659C0007305B0952F823209DF8073003F01F03E6
:1065AC00012101FA03F31340002B14BF0123002334
:1065BC00DBB2184602B0704700E100E008B50020DD
:1065CC00FFF7E0FF034683F00103DBB2002B03D09F
:1065DC000721002000F096F900BF08BD08B506F0B1
:1065EC00FDFF034683F00103DBB2002B03D1094905
:1065FC00842002F043FF0C20FFF774FF00BFFFF76D
:10660C00B2FF0346002BFAD1034B00229A7000BF55
:10661C0008BD00BF88F202000832002000B583B02C
:10662C0000230193134B1B78002B02D0852301937D
:10663C001BE0104B00229A600E4B00225A600D4B4F
:10664C0000221A610B4B0022DA60FFF7B7FF06F04D
:10665C00C5FF034683F00103DBB2002B02D00120FF
:10666C00FFF772FF034B01221A70019B184603B00F
:10667C005DF804FB0832002084B00190019B1B687C
:10668C000393039B002B03D0039B1A68019B1A6096
:10669C00039B184604B0704700B583B0164B1B78AB
:1066AC00002B04D115494FF48E7002F0E7FE124B0B
:1066BC00DB68002B04D1114940F21D1002F0DEFE04
:1066CC0000238DF807300DF107031846FEF780F90B
:1066DC00094BDB68013B084AD360074BDB68002B96
:1066EC0001D1FFF77BFF9DF807301846FEF786F9BE
:1066FC0000BF03B05DF804FB0832002088F20200F2
:10670C0000B585B003468DF807309DF80730002B97
:10671C0002D10C4B039301E00B4B03930398FFF74F
:10672C00ABFF0290029B002B06D0029B5B689DF88E
:10673C00072010469847F1E700BF00BF05B05DF891
:10674C0004FB00BF103200201832002008B54FF4B3
:10675C008070FFF7E8FE0346002B0CD04FF48070DE
:10676C00FFF7CDFE0120FFF7B3FE0E4B01225A704E
:10677C000020FFF7C5FF4FF48270FFF7D4FE0346ED
:10678C00002B0CD04FF48270FFF7B9FE0220FFF7FC
:10679C009FFE044B01229A700120FFF7B1FF00BF4E
:1067AC0008BD00BF0832002000B583B001900091F5
:1067BC00019B002B02D10020FFF7A2FF00BF03B00A
:1067CC005DF804FB00B585B0034600918DF80730E9
:1067DC009DF80730012B08D0032B25D0002B00D0BF
:1067EC0032E00020FFF75CFE2EE000238DF80F3026
:1067FC000DF10F031846FEF7EBF8154B1B7883F0E1
:10680C000103DBB2002B01D0FFF708FF104BDB6854
:10681C0001330F4AD3600E4B01229A709DF80F3052
:10682C001846FEF7EBF80FE0094B1B78002B04D150
:10683C00084940F25B2002F021FE0721002000F005
:10684C0061F8FFF729FF00BF00BF05B05DF804FB3E
:10685C000832002088F2020082B003468DF807301F
:10686C0007499DF907305B099DF8072002F01F02CC
:10687C00012000FA02F241F8232000BF02B0704759
:10688C0000E100E082B003468DF8073008499DF91D
:10689C0007305B099DF8072002F01F02012000FA67
:1068AC0002F2603341F8232000BF02B0704700BFF2
:1068BC0000E100E082B0034600918DF807309DF9AD
:1068CC000730002B0CDA0D499DF8073003F00F034D
:1068DC00043B009AD2B25201D2B20B441A7609E0B0
:1068EC0007499DF90730009AD2B25201D2B20B443B
:1068FC0083F8002300BF02B0704700BF00ED00E03A
:10690C0000E100E000B583B003460A468DF807307D
:10691C0013468DF806309DF80630012B03D99DF8EF
:10692C000630032B0CD99DF80630042B03D99DF8A7
:10693C000630072B04D90D494FF4927002F09EFDDE
:10694C009DF806209DF9073011461846FFF7B2FF57
:10695C009DF907301846FFF795FF9DF9073018464B
:10696C00FFF77AFF00BF03B05DF804FBE8F202000A
:10697C0000B583B00346ADF80630BDF806301846B6
:10698C0000F026F803461B68012B0CBF01230023E3
:10699C00DBB2184603B05DF804FB00B585B00346C6
:1069AC00ADF80630BDF80630184600F011F8034675
:1069BC001A4600231360BDF80630184600F008F89C
:1069CC0003461B680393039B00BF05B05DF804FBF3
:1069DC0082B00346ADF80630BDF8063003F18043B3
:1069EC0003F5C043184602B07047000082B0019016
:1069FC00034A019BC2F8043300BF02B0704700BFCA
:106A0C000060004082B00190034BD3F80423019B3B
:106A1C001340184602B070470060004082B00190ED
:106A2C000849084A019B03F5A27352F8233043F03E
:106A3C000102019B03F5A27341F8232000BF02B0B1
:106A4C00704700BF0060004084B003900291134671
:106A5C008DF807301449144A039B03F5A27352F8BE
:106A6C00233023F44F3323F44073039A02F5A272BC
:106A7C0041F822300C480C4A039B03F5A27352F8E0
:106A8C002320029B1B0203F47C519DF807301B044E
:106A9C0003F440330B431A43039B03F5A27340F8F2
:106AAC00232000BF04B070470060004082B001900A
:106ABC00054A019B03F5A27352F823301B0A03F01D
:106ACC003F03184602B070470060004082B001904E
:106ADC00064A019B03F5A27352F823301B0C03F0FA
:106AEC000303DBB2184602B0704700BF00600040E1
:106AFC0000B583B00190019B1B682F2B04D90B4967
:106B0C004FF4E87002F0BAFC019B1B681F2B02D8F3
:106B1C004FF0A04306E0019B1B6803F01F02019B92
:106B2C001A60034B184603B05DF804FB48F30200EF
:106B3C000003005000B585B00190084611461A4676
:106B4C0003468DF803300B468DF8023013468DF852
:106B5C00013001AB1846FFF7CBFF0390019A9DF86B
:106B6C0003109DF802305B0019439DF801309B0027
:106B7C0019439DF818301B0219439DF81C301B0457
:106B8C001943039B02F5E07243F8221000BF05B0D5
:106B9C005DF804FB00B585B003900B468DF80B3007
:106BAC009DF80B2000230193002300931346002231
:106BBC0000210398FFF7BEFF00BF05B05DF804FB92
:106BCC0000B585B0019001AB1846FFF791FF03901B
:106BDC00019A039B02F5E07253F8223023F0020372
:106BEC000293019A039B02F5E072029943F822107A
:106BFC0000BF05B05DF804FB00B585B001900B46F5
:106C0C008DF8033001AB1846FFF772FF0390019A21
:106C1C000199039B01F5E07153F8213023F44031C5
:106C2C00039B02F5E07243F82210019A0199039B31
:106C3C0001F5E07153F821309DF803100904194354
:106C4C00039B02F5E07243F8221000BF05B05DF81B
:106C5C0004FB00B585B0019001AB1846FFF748FF67
:106C6C000390039800F020F80246019B22FA03F3EC
:106C7C0003F00103184605B05DF804FB00B585B0C0
:106C8C00019001AB1846FFF733FF0390019A039B69
:106C9C0002F5E07253F822301B0C03F00303DBB255
:106CAC00184605B05DF804FB82B00190019BD3F847
:106CBC001035184602B0704700B589B003900291A8
:106CCC000192174A05AB92E8030083E80300039A8C
:106CDC00029B1344022B04D912494FF43A7002F070
:106CEC00CDFB039B079311E0079B9B0008AA134461
:106CFC0053F80C3C1846FFF7D7FF0246019B1A606D
:106D0C00019B04330193079B01330793039A029B66
:106D1C001A44079B9A42E7D800BF09B05DF804FB00
:106D2C0080F3020048F3020084B001900091009BB4
:106D3C000393019BDB080293019B03F00703019370
:106D4C000122019B02FA03F30399029A0A44127876
:106D5C001340184604B0704784B001900091009B1A
:106D6C000393019BDB080293019B03F00703019340
:106D7C00039A029B13440399029A0A44127851B263
:106D8C000120019A00FA02F252B20A4352B2D2B274
:106D9C001A7000BF04B0704782B001900C4A019B7E
:106DAC001344303393F90030002B09DB084A019B64
:106DBC001344303393F90030072B01DC012300E03E
:106DCC00002303F00103DBB2184602B0704700BF8A
:106DDC001C32002082B00190064A019B13443033D0
:106DEC0093F90030072BCCBF01230023DBB21846EC
:106DFC0002B070471C32002082B00190064A019B01
:106E0C001344303393F90030DB43DBB2DB09DBB2E4
:106E1C00184602B0704700BF1C32002084B00390AB
:106E2C00029101928DF80330029B59B20E4A039BDA
:106E3C00134430330A461A700B49029B019A41F8ED
:106E4C0023209DF8033083F00103DBB2002B08D024
:106E5C00029B083B039A51B2034A13440A4683F837
:106E6C00602000BF04B070471C32002082B001903B
:106E7C00044A019B13443033FF221A7000BF02B046
:106E8C00704700BF1C32002082B00190044A019B65
:106E9C001344303393F90030184602B0704700BFEA
:106EAC001C32002082B00190034A019B52F823301F
:106EBC00184602B0704700BF1C32002000B589B0E4
:106ECC000390029113468DF80730FF238DF81F3085
:106EDC009DF80730002B01D0002300E00823059318
:106EEC009DF80730002B01D0082300E00C230493FD
:106EFC00059B069314E00F4A069B52F82330B3F11E
:106F0C00FF3F0AD19DF80730029A06990398FFF7C4
:106F1C0085FF069B8DF81F3006E0069B0133069318
:106F2C00069A049B9A42E6D39DF91F30184609B085
:106F3C005DF804FB1C32002082B003468DF807304C
:106F4C009DF80730094A4FF0FF3142F823109DF8A5
:106F5C000730072B07D99DF80730083B034A134429
:106F6C00FF2283F8602000BF02B070471C32002063
:106F7C0000B583B0214B93F86430002B03D0082369
:106F8C000093009B36E000238DF8073009E09DF854
:106F9C0007301846FFF76AFF9DF8073001338DF86C
:106FAC0007309DF807302F2BF1D900238DF80730CF
:106FBC0009E09DF807301846FFF7BEFF9DF8073033
:106FCC0001338DF807309DF807300B2BF1D90721D1
:106FDC000620FFF797FC4FF4BE70FFF7DEFC4FF076
:106FEC000040FFF703FD054B012283F864200023CA
:106FFC000093009B184603B05DF804FB1C32002084
:10700C00044B93F86430002B14BF01230023DBB234
:10701C00184670471C32002000B587B003900291CF
:10702C000192039B2F2B04D92B4940F2F71002F04D
:10703C0025FA002305930398FFF7DEFE0346002B89
:10704C0002D00823059341E0029BDB781A46019994
:10705C000398FFF733FF03468DF813309DF9133077
:10706C00B3F1FF3F30D0029B9B78002B03D00398E9
:10707C00FFF7A6FD05E0029B5B7819460398FFF726
:10708C0089FD029BDB78002B08D09DF91300029B35
:10709C001B781A460399FFF7D7FC17E09DF91330BC
:1070AC00083B9DF91320083A0C490A4492F96010E8
:1070BC00029A1278920152B20A4351B2074A13440F
:1070CC000A4683F8602001E004230593059B1846CB
:1070DC0007B05DF804FB00BF90F302001C320020E7
:1070EC0000B587B001900B468DF80330019B2F2B18
:1070FC0004D93D4940F2252002F0C0F90198FFF770
:10710C007BFE0346002B04D1374940F2262002F0C7
:10711C00B5F90198FFF75EFE0346002B2FD00198BE
:10712C00FFF7B2FE0346083B304A134493F9603034
:10713C008DF816309DF816309B098DF815309DF89A
:10714C001530032B0BD10198FFF783FD0346002B61
:10715C0001D0032300E002238DF8173008E09DF8DE
:10716C001530012B01D1022300E003238DF81730D9
:10717C009DF8173019460198FFF73EFD30E0019855
:10718C00FFF70AFE0346002B2AD00198FFF77CFE7E
:10719C0003460493049B9BB240339BB29B00ADF817
:1071AC000E30049B1846FFF739FCBDF80E3018461C
:1071BC00FFF7F3FB9DF80330002B11D00198FFF77C
:1071CC0063FE03461846FFF76DFE0290029B002BF0
:1071DC0006D00122049B02FA03F31846FFF706FCC3
:1071EC0000BF07B05DF804FB90F302001C320020D6
:1071FC0000B583B00190019B2F2B04D9084940F2B4
:10720C00722002F03BF90198FFF723FD0346002B97
:10721C0014BF01230023DBB2184603B05DF804FB56
:10722C0090F3020000B599B00023179306AB00222F
:10723C001A605A604FF48073ADF8563001231493E2
:10724C000023169321E0BDF856301846FFF790FB4B
:10725C000346002B0ED01498FFF7D4FB0346002BEB
:10726C0008D0BDF856301846FFF797FB179A149BB9
:10727C0013431793149B5B001493BDF856300433DF
:10728C00ADF85630169B01331693169B072BDAD9A3
:10729C004FF4BE70FFF76CFB0346002B0DD04FF480
:1072AC00BE70FFF77AFB179B43F00043179306ABB6
:1072BC001A4602210020FFF7FFFC179BDBB2002BC4
:1072CC0029D0012314930023169321E0149A179BC1
:1072DC001340002B16D01698FFF7E8FB1190169868
:1072EC00FFF7F4FB03468DF843301698FFF7DAFDF1
:1072FC000F900F9B002B05D09DF843200F9B114640
:10730C0011989847149B5B001493169B01331693AA
:10731C00169B072BDAD9179B002B80F2F0800023E9
:10732C008DF84B3004AB00221A605A600023139383
:10733C000AE0139B9B0018AA13444FF0FF3243F84A
:10734C00582C139B01331393139B012BF1D900235E
:10735C008DF84B300023169378E06B4A169B134440
:10736C00603393F900308DF83B309DF83B3023F0BF
:10737C00C0030D93644A169B1344603393F9003099
:10738C00B3F1FF3F5FD002AB19460D98FFF7CCFC71
:10739C000346002B57D09DF83B309B098DF83330BA
:1073AC000D98FFF771FD03461846FFF77BFD0B9018
:1073BC000B9B002B03D19DF83330032B43D19DF84D
:1073CC003330032B04D104AB19460D98FFF7C4FCE2
:1073DC000D98FFF753FC03468DF82B3006AB19467E
:1073EC000D98FFF7A1FC0990099B002B03D09DF889
:1073FC002B30022B06D0099B002B24D19DF82B306F
:10740C00032B20D19DF83330032B13D19DF82B3057
:10741C00022B01D1032300E002238DF823309DF8C9
:10742C00233019460D98FFF7E7FB9DF84B300133DD
:10743C008DF84B300B9B002B05D09DF833200B9B0C
:10744C0011460D989847169B01331693169B032BE8
:10745C0083D99DF84B30002B4CD001238DF84A304A
:10746C006B461A4602210020FFF726FC00231393DB
:10747C0014E0139B9B0018AA134453F8602C139B25
:10748C009B0018A90B4453F8483C9A4203D00023A4
:10749C008DF84A3005E0139B01331393139B012B9A
:1074AC00E7D99DF84A30002B03D000238DF84B30E0
:1074BC0020E0002313931AE0139B9B0018AA13449B
:1074CC0053F8602C139B9B0018A90B4443F8482CD1
:1074DC00139B9B0018AA134453F8502C139B9B002E
:1074EC0018A90B4443F8582C139B01331393139B8B
:1074FC00012BE1D99DF84B30002B7FF428AF00BF56
:10750C0019B05DF804FB00BF1C32002084B0019060
:10751C000B46ADF80230BDF80230019A134400223C
:10752C001A60BDF80230019A13441B680393039B45
:10753C0000BF04B0704782B001900B46ADF802302A
:10754C00BDF80230019A13441B68002B14BF0123B1
:10755C000023DBB2184602B0704782B00190009154
:10756C00019B009AC3F8042300BF02B0704782B09D
:10757C0001900091019BD3F80423009B1340002B36
:10758C0014BF01230023DBB2184602B0704782B04F
:10759C0001900091019B009AC3F8082300BF02B030
:1075AC00704784B00190019BD3F880340393019B06
:1075BC00039AC3F88024039B184604B0704782B02A
:1075CC000190019B0422C3F8002500BF02B0704754
:1075DC0084B0039002910192039B019AC3F8142585
:1075EC00039B029AC3F80C2500BF04B0704784B00B
:1075FC00039002910192039B029AC3F80825039B06
:10760C00019AC3F8102500BF04B0704782B00190F6
:10761C00019BD3F81835DBB2184602B0704782B024
:10762C0001900B468DF803309DF80320019BC3F8A5
:10763C001C2500BF02B0704782B001900B468DF83C
:10764C0003309DF80330019A134401221A6000BFE5
:10765C0002B0704782B001900B468DF80330134690
:10766C008DF802309DF803209DF802301343DBB2F5
:10767C001A46019BC3F86C2500BF02B0704782B05C
:10768C0001900091019B009AC3F8242500BF02B021
:10769C00704784B001900B46ADF80230BDF8023053
:1076AC00019A134400221A60BDF80230019A134467
:1076BC001B680393039B00BF04B0704782B001901A
:1076CC000B46ADF80230BDF80230019A13441B682A
:1076DC00002B14BF01230023DBB2184602B0704705
:1076EC0082B001900091019BD3F80022009B1A43B9
:1076FC00019BC3F8002200BF02B0704782B001901A
:10770C000091019BD3F80022009BDB431A40019BA4
:10771C00C3F8002200BF02B0704782B00190009104
:10772C00019B009AC3F8042300BF02B0704782B0DB
:10773C0001900091019B009AC3F8082300BF02B08E
:10774C00704784B00190019BD3F880340393019B64
:10775C00039AC3F88024039B184604B0704782B088
:10776C000190019B0822C3F8002500BF02B07047AE
:10777C0084B0039002910192039B029AC3F80C25EA
:10778C00039B019AC3F8142500BF04B0704784B062
:10779C00039002910192039B029AC3F80825039B64
:1077AC00019AC3F8102500BF04B0704782B0019055
:1077BC000B468DF803309DF80330019A13440122D7
:1077CC001A6000BF02B0704782B001900B468DF872
:1077DC00033013468DF802309DF803209DF80230DB
:1077EC001343DBB21A46019BC3F86C2500BF02B0F1
:1077FC00704782B001900091019B009AC3F8242538
:10780C0000BF02B0704784B00390029113468DF80C
:10781C000730029A039BC3F844259DF80720039B6D
:10782C00C3F8482500BF04B0704782B00190019B9B
:10783C00D3F84C35184602B0704784B003900291CF
:10784C0013468DF80730029A039BC3F834259DF834
:10785C000720039BC3F8382500BF04B0704782B0E3
:10786C000190019BD3F83C35184602B0704784B0A8
:10787C000190019B1B0B8DF80F309DF90F301846B2
:10788C0004B0704782B00190019B03F06043B3F1E8
:10789C00005F0CBF01230023DBB2184602B0704717
:1078AC0000B583B00190019B1B682F2B04D90B49A9
:1078BC004FF4E87001F0E2FD019B1B681F2B02D80E
:1078CC004FF0A04306E0019B1B6803F01F02019BD5
:1078DC001A60034B184603B05DF804FBF0F302008A
:1078EC000003005000B585B00190084611461A46B9
:1078FC0003468DF803300B468DF8023013468DF895
:10790C00013001AB1846FFF7CBFF0390019A9DF8AD
:10791C0003109DF802305B0019439DF801309B0069
:10792C0019439DF818301B0219439DF81C301B0499
:10793C001943039B02F5E07243F8221000BF05B017
:10794C005DF804FB00B585B0039000230193002380
:10795C0000930023012201210398FFF7C3FF00BF0E
:10796C0005B05DF804FB00B585B003900B468DF8AF
:10797C000B309DF80B20002301930023009313463A
:10798C00002200210398FFF7ADFF00BF05B05DF8A2
:10799C0004FB00B585B0019001AB1846FFF780FFE2
:1079AC000390019B012202FA03F31946039800F09D
:1079BC0004F800BF05B05DF804FB82B001900091A3
:1079CC00019B009AC3F8082500BF02B07047000065
:1079DC0000B583B001900091009B1B68B3F1FF3F91
:1079EC0009D0009B1B681846FFF7D3FF009B1B6850
:1079FC001846FFF7A7FF009B5B68B3F1FF3F05D06C
:107A0C00009B5B6800211846FFF7ADFF019B1B79BB
:107A1C00464A5B0113441C331B78002B41D0019B5D
:107A2C001A68009B9B6919461046FFF7E2FE019B02
:107A3C001868009B597D009B1B7D1A46FFF7C4FEFE
:107A4C00019B1868009B1968009B5B681A46FFF73E
:107A5C008FFE009B1B7D012B64D1009B9B68B3F1B7
:107A6C00FF3F05D0009B9B6800211846FFF77BFF6A
:107A7C00009BDB68B3F1FF3F09D0009BDB68184625
:107A8C00FFF787FF009BDB681846FFF75BFF019B46
:107A9C001868009BD968009B9B681A46FFF777FE15
:107AAC0040E0019B1A68009B9B6919461046FFF742
:107ABC00E6FD019B1868009B597D009B1B7D1A46B7
:107ACC00FFF7C8FD019B1868009B1968009B5B6859
